:10000000836A8C6A956A826A8B6A9468846A8D6A4C
:100010009668816A8A6A936A806A896A0F0EC16EDD
:10002000070EB46E926882B218EF00F01CEF00F079
:100030008380839220EF00F08390838220EF00F092
:1000400080B225EF00F029EF00F0838483962DEF36
:1000500000F0839483862DEF00F082B032EF00F041
:1000600036EF00F08388839A3AEF00F08398838A12
:100070003AEF00F080B63FEF00F043EF00F0838CE2
:10008000839E47EF00F0839C838E47EF00F084B49B
:100090004CEF00F050EF00F08180819254EF00F0BF
:1000A0008190818254EF00F080BA59EF00F05DEF4B
:1000B00000F08184819661EF00F08194818661EF88
:1000C00000F084B066EF00F06AEF00F08188819A5A
:1000D0006EEF00F08198818A6EEF00F084B273EFCA
:1000E00000F077EF00F0818C819E13EF00F0819C8F
:0600F000818E13EF00F009
:047FFC0000EF00F0A2
:020000040030CA
:04000000000C1E1EB4
:020005008181F7
:060008000FC00FE00F40E5
:00000001FF
