:0400000007EF00F016
:0A00080059821DED0BF07CEF0DF0A6
:1008000000000650800B0F6E06500624116E05AED8
:100810000CEF04F00EEF04F00FEF04F01180115014
:10082000D8B415EF04F017EF04F02CEF04F0112802
:10083000D8A41DEF04F01FEF04F027EF04F0000E22
:10084000036E000E046E000E056E000E066E058E21
:10085000000E066E34EF04F0000E036E000E046E00
:10086000000E056E000E066E0A50800B106E0F50C3
:100870001018D8B43EEF04F040EF04F041EF04F05C
:100880000F8C0A500A24106E09AE49EF04F04BEFAA
:1008900004F04CEF04F010801050D8B452EF04F084
:1008A00054EF04F069EF04F01028D8A45AEF04F0D4
:1008B0005CEF04F064EF04F0000E076E000E086EAB
:1008C000000E096E000E0A6E098E000E0A6E71EFA0
:1008D00004F0000E076E000E086E000E096E000E8A
:1008E0000A6E1150105CD8B078EF04F07AEF04F083
:1008F000A1EF04F00FAC7FEF04F081EF04F083EF81
:1009000004F0800E0F1A11C012F010C011F012C0C6
:1009100010F003C012F007C003F012C007F004C0CB
:1009200012F008C004F012C008F005C012F009C0AF
:1009300005F012C009F006C012F00AC006F012C09D
:100940000AF0000E126E115010C00BF00C6A0B5E14
:10095000000E0C5A0CBEB6EF04F00C5009E11A0E52
:100960000B5CD8A0B6EF04F0B8EF04F0EFEF04F0A2
:100970000350041005100610D8A4C1EF04F0C4EF12
:1009800004F0010EC5EF04F0000E126E000E036EAF
:10099000000E046E000E056E000E066E10C011F003
:1009A000F8EF04F012A0D7EF04F0D9EF04F0DFEF76
:1009B00004F0D89012300109126EE1EF04F0D890E3
:1009C000123203A0E6EF04F0E8EF04F0E9EF04F0E0
:1009D000128E06340632053204320332112A1050C8
:1009E000115CD8A0F6EF04F0F8EF04F0D2EF04F0B9
:1009F0000FBCFDEF04F0FFEF04F03FEF05F01150E6
:100A0000D8A405EF05F007EF05F011EF05F0000E93
:100A1000036E000E046E000E056E000E066E60EF93
:100A200006F00750032608500422095005220A50F8
:100A3000062206A01EEF05F020EF05F0CCEF05F032
:100A400012A025EF05F027EF05F02DEF05F0D89067
:100A500012300109126E2FEF05F0D890123203A068
:100A600034EF05F036EF05F037EF05F0128E06345F
:100A70000632053204320332112ACCEF05F007505A
:100A8000035C08500458095005580650800A0B6E44
:100A90000A50800A0B58D8B050EF05F052EF05F01D
:100AA0007DEF05F00350075C0B6E045008580C6E88
:100AB000055009580D6E06500A580E6EFF0E0B2495
:100AC000036EFF0E0C20046EFF0E0D20056EFF0E50
:100AD0000E20066E800E0F1A126C1250D8A473EFFF
:100AE00005F075EF05F085EF05F0010E0326000E09
:100AF00004220522062285EF05F00750035E085008
:100B0000045A0950055A0A50065A03500410051099
:100B10000610D8A48EEF05F090EF05F0C5EF05F0B4
:100B20001250D8A496EF05F098EF05F0C5EF05F048
:100B3000000E036E000E046E000E056E000E066EB3
:100B400060EF06F0D890033604360536063612AE4E
:100B5000ACEF05F0AEEF05F0AFEF05F0038012A0AB
:100B6000B4EF05F0B6EF05F0BAEF05F0D880123615
:100B7000BCEF05F0D89012361150D8B4C2EF05F092
:100B8000C4EF05F0C5EF05F0110605AECAEF05F09C
:100B9000CCEF05F0A2EF05F0000E106E12AED3EF11
:100BA00005F0D5EF05F0EDEF05F012C00BF07F0E6C
:100BB0000B16D8B4DEEF05F0E0EF05F0E4EF05F03A
:100BC000010E106EEDEF05F003A0E9EF05F0EBEF7D
:100BD00005F0EDEF05F0E0EF05F01050D8B4F3EFBD
:100BE00005F0F5EF05F020EF06F0010E0326000EEC
:100BF00004220522062206A000EF06F002EF06F00E
:100C000020EF06F003C00BF004C00CF005C00DF09F
:100C100006C00EF00E340E320D320C320B320BC009
:100C200003F00CC004F00DC005F00EC006F0112852
:100C3000D8B41DEF06F01FEF06F020EF06F0112AE2
:100C40001128D8B426EF06F028EF06F030EF06F0B2
:100C50001150D8A42EEF06F030EF06F042EF06F068
:100C6000000E036E000E046E000E056E000E066E82
:100C70001150D8A43EEF06F040EF06F042EF06F028
:100C8000000E0F6E11A047EF06F049EF06F04CEF93
:100C900006F0058E4DEF06F0059ED8901130066ED9
:100CA0000FAE55EF06F057EF06F058EF06F0068E40
:100CB00003C003F004C004F005C005F006C006F050
:100CC00012001450800B1D6E14501424236E13AEAA
:100CD0006CEF06F06EEF06F06FEF06F02380235006
:100CE000D8B475EF06F077EF06F08AEF06F0232808
:100CF000D8A47DEF06F07FEF06F087EF06F0000E38
:100D0000116E000E126E000E136E000E146E138E16
:100D100092EF06F0000E116E000E126E000E136EB2
:100D2000000E146E1850800B1D1A18501824226ED5
:100D300017AE9DEF06F09FEF06F0A0EF06F02280C1
:100D40002250D8B4A6EF06F0A8EF06F0BBEF06F0ED
:100D50002228D8A4AEEF06F0B0EF06F0B8EF06F008
:100D6000000E156E000E166E000E176E000E186E39
:100D7000178EC3EF06F0000E156E000E166E000EF5
:100D8000176E000E186E2250D8B4C9EF06F0CBEFE4
:100D900006F0D3EF06F02350D8A4D1EF06F0D3EF3E
:100DA00006F0DDEF06F0000E116E000E126E000E62
:100DB000136E000E146E75EF08F017501102F3CF8A
:100DC00028F0F4CF29F028501E6E1F6A206A216A8D
:100DD0002950246E256A266A276A16501202F3CF1C
:100DE00028F0F4CF29F028501E26000E1F222022C2
:100DF000212229502426000E2522262227221550A2
:100E00001302F3CF28F0F4CF29F028501E26000E4D
:100E10001F222022212229502426000E25222622AC
:100E2000272220C021F01FC020F01EC01FF01E6A24
:100E300015501202F3CF28F0F4CF29F028501E26C7
:100E400029501F22000E2022000E212216501102CE
:100E5000F3CF28F0F4CF29F028501E2629501F2266
:100E6000000E2022000E212220C021F01FC020F001
:100E70001EC01FF01E6A15501102F3CF28F0F4CFE8
:100E800029F028501E2629501F22000E2022000E75
:100E9000212217501202F3CF28F0F4CF29F0285066
:100EA000242629502522000E2622000E2722165025
:100EB0001302F3CF28F0F4CF29F02850242629502C
:100EC0002522000E2622000E272217501302F3CFF0
:100ED00028F0F4CF29F02850196E29501A6E1B6A99
:100EE0001C6A1BC01CF01AC01BF019C01AF0196A4A
:100EF000195024261A5025221B5026221C50272226
:100F00001EC019F01FC01AF020C01BF021C01CF039
:100F1000190E90EF07F0D8901C321B321A3219329A
:100F2000E82E8BEF07F0195024261A5025221B506B
:100F300026221C50272220C021F01FC020F01EC0F6
:100F40001FF01E6A225023C019F01A6A1926000EDB
:100F50001A22820E1924286EFF0E1A20296EC6EF5F
:100F600007F0D890243625362636273621AEBBEF3B
:100F700007F0BDEF07F0BEEF07F02480D8901E36D3
:100F80001F36203621362806D8A0290626AECBEFFC
:100F900007F0CDEF07F0B1EF07F0000E226E21AEA3
:100FA000D4EF07F0D6EF07F0FAEF07F0FF0E1E14AC
:100FB000196EFF0E1F141A6EFF0E20141B6E7F0E8B
:100FC00021141C6E19501A101B101C10D8B4EBEF12
:100FD00007F0EDEF07F0F1EF07F0010E226EFAEFE8
:100FE00007F024A0F6EF07F0F8EF07F0FAEF07F0AC
:100FF000EDEF07F02250D8B400EF08F002EF08F050
:1010000026EF08F0010E2426000E25222622272294
:1010100027A00DEF08F00FEF08F026EF08F024C02E
:1010200019F025C01AF026C01BF027C01CF01C3494
:101030001C321B321A32193219C024F01AC025F0A2
:101040001BC026F01CC027F0284A292A29BE31EFF0
:1010500008F0295008E12828D8A031EF08F033EF34
:1010600008F03DEF08F0000E246E000E256E800E95
:10107000266E7F0E276E6BEF08F029BE4AEF08F050
:10108000295006E12804D8B048EF08F04AEF08F0EC
:1010900056EF08F0000E246E000E256E000E266E30
:1010A000000E276E000E1D6E6BEF08F028C023F0B7
:1010B000FF0E2416FF0E25167F0E2616000E27168D
:1010C00023A065EF08F067EF08F068EF08F0268EC0
:1010D000D8902330276E1D50271224C011F025C050
:1010E00012F026C013F027C014F012003550800B08
:1010F000426E35503524496E34AE81EF08F083EFEF
:1011000008F084EF08F049804950D8B48AEF08F01D
:101110008CEF08F0A1EF08F04928D8A492EF08F06E
:1011200094EF08F09CEF08F0000E326E000E336E64
:10113000000E346E000E356E348E000E356EA9EF43
:1011400008F0000E326E000E336E000E346E000E8C
:10115000356E3950800B421A395039244A6E38AEF8
:10116000B4EF08F0B6EF08F0B7EF08F04A804A5045
:10117000D8B4BDEF08F0BFEF08F0D4EF08F04A286C
:10118000D8A4C5EF08F0C7EF08F0CFEF08F0000EC5
:10119000366E000E376E000E386E000E396E388EC9
:1011A000000E396EDCEF08F0000E366E000E376E62
:1011B000000E386E000E396E365037103810391068
:1011C000D8A4E5EF08F0E7EF08F0FFEF08F0000E15
:1011D000326E000E336E000E346E000E356E800ED1
:1011E00034127F0E35124250351232C032F033C005
:1011F00033F034C034F035C035F042EF0AF04950D6
:10120000D8A405EF09F007EF09F011EF09F0000E7F
:10121000326E000E336E000E346E000E356E42EFED
:101220000AF04A5049C03AF03B6A3A5E000E3B5A17
:101230007F0E3A24436E000E3B20446E32C03EF0D7
:1012400033C03FF034C040F035C041F0000E326E84
:10125000000E336E000E346E000E356E000E456EBD
:10126000000E466E000E476E000E486E000E4A6E6F
:1012700072EF09F04A50D8B440EF09F042EF09F09C
:1012800059EF09F0D8903E363F3640364136D89077
:10129000323633363436353648AE51EF09F053EF37
:1012A00009F054EF09F03280D8904536463647367B
:1012B000483636503E5C37503F58385040583950C9
:1012C0004158D8A066EF09F068EF09F071EF09F016
:1012D000488C36503E5E37503F5A3850405A39504D
:1012E000415A4A2A190E4A6478EF09F07AEF09F058
:1012F0003AEF09F03E503F1040104110D8B483EF50
:1013000009F085EF09F09DEF09F045809DEF09F0A8
:10131000D890323633363436353648AE92EF09F04F
:1013200094EF09F095EF09F03280D89045364636B3
:10133000473648364306D8A0440634AEA2EF09F03B
:10134000A4EF09F088EF09F0000E4A6E48AEABEF4B
:1013500009F0ADEF09F0D1EF09F0FF0E45143A6E38
:10136000FF0E46143B6EFF0E47143C6E7F0E481472
:101370003D6E3A503B103C103D10D8B4C2EF09F01E
:10138000C4EF09F0C8EF09F0010E4A6ED1EF09F081
:1013900032A0CDEF09F0CFEF09F0D1EF09F0C4EFA3
:1013A00009F04A50D8B4D7EF09F0D9EF09F0FDEFB2
:1013B00009F0010E3226000E33223422352235A0E8
:1013C000E4EF09F0E6EF09F0FDEF09F032C03AF082
:1013D00033C03BF034C03CF035C03DF03D343D32CD
:1013E0003C323B323A323AC032F03BC033F03CC080
:1013F00034F03DC035F0434A442A44BE08EF0AF0B9
:10140000445008E14328D8A008EF0AF00AEF0AF098
:1014100015EF0AF0000E446E4368000E326E000EA7
:10142000336E000E346E000E356E44BE22EF0AF0AD
:10143000445006E14304D8B020EF0AF022EF0AF04E
:1014400030EF0AF0000E446E000E436E000E326E56
:10145000000E336E000E346E000E356E000E426EBE
:1014600043C049F049A037EF0AF039EF0AF03CEFEA
:101470000AF0348E3DEF0AF0349ED8904930356E34
:10148000F3EF08F012000B6E0B50D8B44AEF0AF0DD
:101490004CEF0AF06EEF0AF006BE53EF0AF051EF80
:1014A0000AF06EEF0AF003C007F004C008F005C0B0
:1014B00009F006C00AF0071E081E091E0A1E072AA8
:1014C000000E082209220A2207C00DF008C00EF003
:1014D00009C00FF00AC010F076EF0AF003C00DF05B
:1014E00004C00EF005C00FF006C010F00350041049
:1014F00005100610D8A47FEF0AF081EF0AF08BEFF9
:101500000AF0000E036E000E046E000E056E000E53
:10151000066E1CEF0BF0960E0C6E95EF0AF00C2A7F
:10152000D89010320F320E320D32000E0D14076EAD
:10153000000E0E14086E000E0F14096EFE0E10142D
:101540000A6E0750081009100A10D8A4AAEF0AF072
:10155000ACEF0AF08FEF0AF0BAEF0AF00C2A010E96
:101560000D26000E0E220F221022D89010320F32BC
:101570000E320D32000E0D14076E000E0E14086EA2
:10158000000E0F14096EFF0E10140A6E075008109B
:1015900009100A10D8A4CFEF0AF0D1EF0AF0AEEF8D
:1015A0000AF0D9EF0AF00C06D8900D360E360F3639
:1015B00010360FBEDEEF0AF0E0EF0AF0E8EF0AF0B7
:1015C000020E0C60E6EF0AF0E8EF0AF0D3EF0AF043
:1015D0000CB0EDEF0AF0EFEF0AF0F0EF0AF00F9E1B
:1015E000D8900C320CC007F0086A096A0A6A07C072
:1015F0000AF0096A086A076A07500D1208500E12AD
:1016000009500F120A5010120B50D8B40AEF0BF009
:101610000CEF0BF014EF0BF006BE13EF0BF011EF15
:101620000BF014EF0BF0108E0DC003F00EC004F0A1
:101630000FC005F010C006F012000600F2A423EF60
:101640000BF025EF0BF0ECEF0BF0565007E1020E1C
:10165000555CD8B02EEF0BF030EF0BF0B9EF0BF07C
:1016600081B035EF0BF037EF0BF064EF0BF0554A1C
:10167000562A8C820D0E016EFC0EE82EFED7012E2E
:10168000FCD78C920D0ED66ED40ED76EF294660EE9
:10169000026E760E016EC10EE82EFED7012EFCD72B
:1016A000022EFAD700008C820A0E016EBC0EE82EC4
:1016B000FED7012EFCD700D08C92D40ED66ED20E5F
:1016C000D76EF29473EF0BF08C820A0E016EBC0E93
:1016D000E82EFED7012EFCD700D08C92D40ED66E09
:1016E000D20ED76EF29481B278EF0BF07AEF0BF056
:1016F000A8EF0BF05506D8A056068C840D0E016E8F
:10170000FC0EE82EFED7012EFCD78C940D0ED66E63
:10171000D40ED76EF294660E026E760E016EC10E76
:10172000E82EFED7012EFCD7022EFAD700008C84BB
:101730000A0E016EBC0EE82EFED7012EFCD700D09B
:101740008C94D40ED66ED20ED76EF294ECEF0BF0D2
:101750008C840A0E016EBC0EE82EFED7012EFCD73B
:1017600000D08C94D40ED66ED20ED76EF294ECEFDD
:101770000BF081B2BEEF0BF0C0EF0BF0ECEF0BF013
:101780005506D8A056068C840D0E016EFC0EE82E70
:10179000FED7012EFCD78C940D0ED66ED40ED76ECC
:1017A000F294660E026E760E016EC10EE82EFED722
:1017B000012EFCD7022EFAD700008C840A0E016E8F
:1017C000BC0EE82EFED7012EFCD700D08C94D40E90
:1017D000D66ED20ED76EF2945992110070EC0DF0C5
:1017E0002B0ED66ECF0ED76E9280000E956EC15026
:1017F000F00B0E09C16ECF0EC116C050F80B0109D7
:10180000C06EC050C70B1009C06EC08EC280C30E20
:10181000C216060E4C6E130E4B6EAE0EE82EFED7A1
:101820004B2EFCD74C2EFAD762EC0DF0C282C2B21E
:101830001CEF0CF01EEF0CF017EF0CF0C4CF57F0BC
:10184000586A5750586E576AC3505712D20E156EC9
:10185000800E166E430E176E420E186E57C003F0C0
:1018600058C004F0056A066A000E43EC0AF003C093
:1018700011F004C012F005C013F006C014F061ECC2
:1018800006F011C032F012C033F013C034F014C0AF
:1018900035F0FE0E156E270E166EA00E176E3B0E5F
:1018A000186E57C003F058C004F0056A066A000EAF
:1018B00043EC0AF003C011F004C012F005C013F0AD
:1018C00006C014F061EC06F011C02EF012C02FF02B
:1018D00013C030F014C031F0000E2A6E000E2B6ED3
:1018E000A00E2C6E400E2D6E3FEC0DF02AC036F08F
:1018F0002BC037F02CC038F02DC039F076EC08F052
:1019000032C051F033C052F034C053F035C054F0FF
:1019100051C003F052C004F053C005F054C006F0AB
:10192000BCEC0CF003C04DF004C04EF005C04FF00D
:1019300006C050F050504F100BE1B90E4D5C0B0E2D
:101940004E58D8A0A6EF0CF0A8EF0CF0ABEF0CF0BF
:101950008C80ACEF0CF08C900D0E4C6EAF0E4B6E7D
:10196000B60EE82EFED74B2EFCD74C2EFAD700D061
:1019700016EF0CF007EF00F0053406340C6E0C5037
:10198000D8A4C5EF0CF0C7EF0CF0D1EF0CF0000EAF
:10199000036E000E046E000E056E000E066E3EEF26
:1019A0000DF003C007F004C008F005C009F006C040
:1019B0000AF0200EE1EF0CF0D8900A32093208321A
:1019C0000732E82EDCEF0CF007500B6E058EFF0E91
:1019D0000316FF0E0416FF0E0516000E0616960ED1
:1019E0000C5E0CBEF8EF0CF0F6EF0CF00EEF0DF005
:1019F0000C50800A970FD8B000EF0DF002EF0DF0F9
:101A000004EF0DF0C7EF0CF0D89006320532043227
:101A100003320C3E04EF0DF026EF0DF01F0E0C64A8
:101A200014EF0DF016EF0DF01EEF0DF0C7EF0CF0F8
:101A3000D89003360436053606360C060C50D8A46A
:101A400024EF0DF026EF0DF018EF0DF00B50D8B489
:101A50002CEF0DF02EEF0DF036EF0DF0061E051EEB
:101A6000041E036C000E04220522062203C003F0AC
:101A700004C004F005C005F006C006F01200000E18
:101A80002E1A000E2F1A000E301A800E311A2AC09C
:101A900003F02BC004F02CC005F02DC006F02EC0C2
:101AA00007F02FC008F030C009F031C00AF001EC97
:101AB00004F003C02AF004C02BF005C02CF006C0CF
:101AC0002DF01200F29ED59AD596D550F80B02094A
:101AD000D56ED59CF294F28AF28CF28ED58E1200DD
:101AE0000F0EC112000E8C6E000E8A6E93809382D0
:101AF000F19E000E956E120000EE4DF00C0EEE6A97
:0E1B0000E806FDE1599059920001EEEF0BF05E
:020000040020DA
:08000000FFFFFFFFFFFFFFFF00
:020000040030CA
:0E000000000C1F1EFF8385FF0FC00FE00F4096
:00000001FF
